:100CD1004578706C6F726520456D6265646465640A
:100CE100004C636420382D626974204D6F64650087
:100B9B00751F10752011752112752213752314758D
:100BAB0024157525167526177B0A7D097F081209F2
:100BBB00417D107F02120B597BFF7A0C79D1120CFD
:0C0BCB00137BFF7A0C79E2120C1380FE01
:0C0D6E00EF4E6007EF1F70F81E80F522AA
:100D4200AD07AC06ED4C600E7F707E00120D6EEDAD
:070D52001D70F11C80EE2270
:1008A700EF131313541FFE53070714602D14604AE8
:1008B70014606724036003020940ED600EA8077403
:1008C70001088002C333D8FC428022A807740108BC
:1008D7008002C333D8FCF4528022ED600EA807745F
:1008E70001088002C333D8FC429022A8077401088C
:1008F7008002C333D8FCF4529022ED600EA807742F
:1009070001088002C333D8FC42A022A8077401085B
:100917008002C333D8FCF452A022ED600EA80774FE
:1009270001088002C333D8FC42B022A8077401082B
:090937008002C333D8FCF452B075
:010940002294
:02080000AD0742
:10080200E4FCED131313541FFF53050714602E1459
:10081200604C14606A240360030208A47E00740121
:10082200A805088005C333CE33CED8F9FFAB80EFDD
:100832005B60047F0180027F00AC0780657E0074EC
:1008420001A805088005C333CE33CED8F9FFAB909B
:10085200EF5B60047F0180027F00AC0780447E0072
:100862007401A805088005C333CE33CED8F9FFAB97
:10087200A0EF5B60047F0180027F00AC078023AFA2
:10088200057E007401A807088005C333CE33CED895
:10089200F9FFADB0EDFBEF5B60047F0180027F00EA
:0408A200AC07AF04EC
:0108A600222F
:060D8400041880C090D0AD
:100941008F1C8D1D8B1E851C0D851D0E851E0F8513
:100951001F108520118521128522138523148524DA
:1009610015852516852617E51FF4600FE520F4602F
:100971000AE521F46005E522F47005750C04801F79
:10098100750C08E4FDAF1F1208A7E4FDAF201208A3
:10099100A7E4FDAF211208A7E4FDAF221208A7E4E6
:1009A100FDAF1C1208A7E4FDAF1D1208A7E4FDAFBF
:1009B1001E1208A7E4FDAF231208A7E4FDAF24121D
:1009C10008A7E4FDAF251208A7E4FDAF260208A79A
:100B59008D0B8F0AD3EF940274809480400DED546D
:100B69000FFF2490F51AEF24D0F51B7F647E001245
:100B79000D42E50C640870047F38800BE50C6404B1
:100B89007008120BD77F28120C3D7F0E120C3D0204
:020B99000D7AD3
:0A0D7A007F01120C3DE4FF020D5949
:100D5900EFC3950A500EE4F5088F0974182FF8E6C9
:050D6900FF120C3D2209
:100D10000509E4F508E509C3950A4003E4F50974FB
:090D2000182509F8E6FF020C3D5C
:100C3D008F20120A5DE50C6408AF207005120B13AE
:100C4D00800D120ACD120C8BE520C454F0F520AFA7
:070C5D0020120ACD020C8BEE
:100CF1008F1FE508C3950B5005E51FB40A03120DBC
:0F0D010010E51F640A6007AF1F120C640508227B
:100C13008B1C8A1D891EAB1CAA1DA91E120D29FF40
:100C23003395E04F6013051EE51E7002051D14F990
:0A0C3300120D29FF120CF180DD22E2
:100C64008F20120A5DE50C6408AF207005120B1387
:100C7400800D120ACD120CAEE520C454F0F520AF5D
:070C840020120ACD020CAEA4
:100A5D00E50EF460637D01AF171208A7E4FDAF0D3D
:100A6D001208A77D01AF0E1208A7E4FDAF0F120803
:100A7D00A77F0A7E00120D6E7D01AF0F1208A77FB2
:100A8D000A7E00120D6EAF171208008F21E50C645F
:100A9D0004701BFDAF0F1208A77F0A7E00120D6EAA
:100AAD007D01AF0F1208A77F0A7E00120D6EE521A2
:0F0ABD0070B8FDAF170208A77F017E00120D422F
:010ACC002207
:100BD7007F30120ACD120C8B7F647E00120D427F8C
:100BE70030120ACD120C8B7FC87E00120D6E7F303B
:100BF700120ACD120C8B7FC87E00120D6E7F201259
:0C0C07000ACD120C8B7FC87E00020D6E1F
:100ACD008F21E521541060047D0180027D00AF145B
:100ADD001208A7E521542060047D0180027D00AF3E
:100AED00151208A7E521544060047D0180027D00A8
:100AFD00AF161208A7E521548060047D0180027DA8
:060B0D0000AF170208A76B
:100B13008F21E521540160047D0180027D00AF1027
:100B23001208A7E521540260047D0180027D00AF15
:100B3300111208A7E521540460047D0180027D00A1
:100B4300AF121208A7E521540860047D0180027DDD
:060B530000AF130208A729
:100C8B00E4FDAF0D1208A7E4FDAF0E1208A77D011E
:100C9B00AF0F1208A77F0A7E00120D6EE4FDAF0F97
:030CAB000208A795
:100CAE007D01AF0D1208A7E4FDAF0E1208A77D015E
:100CBE00AF0F1208A77F0A7E00120D6EE4FDAF0F74
:030CCE000208A772
:030000000209D121
:0C09D100787FE4F6D8FD758126020A1834
:100D2900BB010689828A83E0225002E722BBFE02C8
:090D3900E32289828A83E49322FB
:1009DD00020B9BE493A3F8E493A34003F68001F28A
:1009ED0008DFF48029E493A3F85407240CC8C3331B
:1009FD00C4540F4420C8834004F456800146F6DFEA
:100A0D00E4800B0102040810204080900D84E47EE8
:100A1D00019360BCA3FF543F30E509541FFEE493DE
:100A2D00A360010ECF54C025E060A840B8E493A3A5
:100A3D00FAE493A3F8E493A3C8C582C8CAC583CAD0
:100A4D00F0A3C8C582C8CAC583CADFE9DEE780BE88
:010D8A000068
:00000001FF
