:100A7A00656C656374726F536F6D65204C434420D7
:0C0A8A0048656C6C6F20576F726C640044
:0909250012085ED2817F057E00FC
:10092E00E4FDFCC3ED9FEE6480F8EC6480985015F6
:10093E00E4FBFA0BBB00010AEB64644A70F50DBDD3
:05094E0000010C80DE39
:010953002281
:10085E00EF30E004D2A08002C2A0EF30E104D2A1BA
:10086E008002C2A1EF30E204D2A28002C2A2EF3017
:10087E00E304D2A38002C2A3EF30E404D2A4800228
:10088E00C2A4EF30E504D2A58002C2A5EF30E60483
:10089E00D2A68002C2A6EF30E703D2A722C2A722B9
:070AC3007E0012092E7F30B6
:080ACA00C280120925C281223D
:050B04007F01020ACA96
:100A96008F0DA905E50DB40105E924808008E50D53
:0B0AA600B40207E924C0FF120ACA22B4
:100A0200E4FF12085EC2807FC8120AC37F32120A54
:100A1200C37F6E120AC37F38120ACA7F0C120ACA37
:0A0A22007F01120ACA7F06020ACA09
:080AFC00D280120925C28122FB
:060981008B0D8A0E890FA8
:10098700E4F510F511AB0DAA0EA90F85118285109C
:1009970083120954FF600D120AFC0511E51170E579
:0409A700051080E1D6
:0109AB002229
:050B09007F1C020ACA76
:050B0E007F18020ACA75
:100A2C00EF30E004D2A48002C2A4EF30E104D2A5DE
:100A3C008002C2A5EF30E204D2A68002C2A6EF303B
:080A4C00E303D2A722C2A72296
:070AB1007E0012092E7F03F5
:0B0AB800C280120A2C120928C2812201
:0A0ADE00E4FF120AB87F01020AB813
:0408AE008F12A905F7
:1008B200E512B40112E92480FFF5137804A2E713CC
:1008C200D8FBF514EF8016E512B4021FE92480F577
:1008D200137804A2E713D8FBF514E924C0540FF5EA
:0B08E20015AF14120AB8AF15120AB8C7
:0108ED0022E8
:1008EE00E4FF120A2C7FC8120AB17F32120AB17FBE
:1008FE006E120AB17F02120AB87F02120AB87F087E
:10090E00120AB8E4FF120AB87F0C120AB8E4FF12FA
:07091E000AB87F06020AB8C7
:0209AC00AE0794
:1009AE00EE540FF9EE54F0FFD2807804A2E713D87C
:1009BE00FBFF120A2C120928C281AF01120A2CD297
:0809CE00817F0512092EC28190
:0109D60022FE
:0609D7008B088A09890A61
:1009DD00E4F50BF50CAB08AA09A90A850C82850B69
:1009ED0083120954FF600D1209AC050CE50C70E57E
:0409FD00050B80E185
:010A010022D2
:0A0AE8007F01120AB87F0C020AB861
:0A0AF2007F01120AB87F08020AB85B
:100A5400E4FDFCC3ED9FEE6480F8EC6480985015CF
:100A6400E4FBFA0BBB00010AEB64644A70F50DBDAC
:050A740000010C80DE12
:010A7900225A
:10080000120A027D017F01120A967BFF7A0A797A29
:100810001209819000007FE87E03120A54120B0E29
:10082000A3E582640F458370EDE4F583F5827FE8EC
:100830007E03120A54120B09A3E582640F458370EC
:10084000ED120B047D017F02120A967F65120AFCED
:0E0850007F53120AFC7FB87E0B120A5480A55B
:03000000020AD21F
:0C0AD200787FE4F6D8FD7581150208005D
:10095400BB010CE58229F582E5833AF583E0225058
:1009640006E92582F8E622BBFE06E92582F8E222A2
:0D097400E58229F582E5833AF583E49322BC
:00000001FF
