:020000040000FA
:060000000A128A11FC2F18
:100E2000F000831203130C1E112F0C12700899008E
:100E3000080080308316031387002030980090301C
:100E40008312031398002D08A3002C08A2002B087E
:100E5000A1002A08A0000A128A11452708000030C4
:100E600083120313AD000030AC002530AB0080309E
:100E7000AA000A128A1119270A128A1166300A1268
:100E80008A1110270A128A113E2F83120313230896
:100E9000031D572F2208031D572F09302102031D60
:100EA000552F60302002031D552F031C952F23085A
:100EB000031D952F01302202031D662FC23021022F
:100EC000031D662F01302002031D662F0318952F86
:100ED0002008A4002108A5002208A6002308A700D6
:100EE00006300310A40DA50DA60DA70DFF3E031D92
:100EF000712F2708F3002608F2002508F1002408C6
:100F0000F0000130F7003130F6002D30F5000030F0
:100F1000F4000A128A119E270A128A117008FF3EF5
:100F200083120313A8002808982F1F30A400240858
:100F3000A900290883160313990008000030FC005B
:100F40000030FB000030FA000030F9007308720432
:100F5000710470040319F32FFD01FD0AF31BBE2F6A
:100F60000130F8000310F00DF10DF20DF30DF80B48
:100F7000B22F0130F8007808FD07AE2F0130F800DD
:100F80000310F90DFA0DFB0DFC0DF80BC02F7308C3
:100F90007702031DD52F72087602031DD52F710825
:100FA0007502031DD52F70087402031CE62F70080C
:100FB000F4027108031C710FF5027208031C720F12
:100FC000F6027308031C730FF70279140130031043
:100FD000F30CF20CF10CF00CFF3E031DE72F013077
:100FE000FD02031DBE2F7C08F3007B08F2007A0887
:100FF000F1007908F000080083010A128A112F2FEE
:02400E003A3F37
:00000001FF
