:100800007F381209237F0A7E001208217F0F120908
:10081000237F0A7E001208217F011209237F0A7EAE
:0108200000D7
:10082100E4FDFCC3ED9FEC9E5015E4FBFA0BBB000D
:0F083100010ABA04F8BBFBF50DBD00010C80E411
:010840002295
:100923008FA0C2B2C2B3D2B47F017E00120821C22B
:02093300B422EC
:100909008FA0D2B2C2B3D2B47F017E00120821C235
:0A091900B40509E509700205082283
:0F0935001208007F801209237F0A7E000208212A
:0F0944001208007FC01209237F0A7E00020821DB
:10087C00D294D293D292D291C297C296C295209121
:10088C00057F311209092092057F34120909209342
:0F089C00057F371209092094057F2A12090922C6
:1008AB00D294D293D292D291C297C296C2952091F2
:1008BB00057F321209092092057F35120909209311
:0F08CB00057F381209092094057F301209092290
:1008DA00D294D293D292D291C297C296C2952091C3
:1008EA00057F331209092092057F361209092093E0
:0F08FA00057F391209092094057F23120909226D
:100841001209357F1E7E00120821D297D296D295C9
:10085100C294C293C292C29120950512087C800E67
:100861002096051208AB80062097031208DAE509E5
:0B0871006410450870CD12094480C8D7
:030000000209539F
:0C095300787FE4F6D8FD758109020841A8
:00000001FF
