:0F09D700556461796100456D6265646465640013
:1008F60078087C007D007BFF7A0979D77E007F0629
:100906001208D0780E7C007D007BFF7A0979DD7EA7
:10091600007F091208D07F281209B17F011209B1A0
:100926007F0C1209B17F831209B17F061209B1E467
:10093600F517F51874082518F8E6FF600D1209C4B6
:100946000518E51870EE051780EA7FC31209B1E4B1
:10095600F519F51A740E251AF8E6FF600D1209C48A
:10096600051AE51A70EE051980EAE4F51BF51C7FF9
:100976001C1209B1051CE51C7002051BC39410E589
:070986001B940040EA80E32E
:10098D00D2A2E4FDFCC3ED9FEC9E5015E4FBFA0BE7
:10099D00BB00010ABA04F8BBFBF50DBD00010C80CC
:0309AD00E4C2A2FF
:0109B0002224
:0209B1008F1D98
:1009B300E51D54F0FF1209E6E51DC454F0FF0209DA
:0109C300E64D
:0209C4008F1D85
:1009C600E51D54F0FF1209F3E51DC454F0FF0209BA
:0109D600F32D
:0D09E6008FA0C2A0C2A17F0A7E0002098D71
:0D09F3008FA0D2A0C2A17F0A7E0002098D54
:03000000020A00F1
:0C0A0000787FE4F6D8FD75811D0208F631
:10080000E709F608DFFA8046E709F208DFFA803EDA
:1008100088828C83E709F0A3DFFA8032E309F608C7
:10082000DFFA8078E309F208DFFA807088828C832F
:10083000E309F0A3DFFA806489828A83E0A3F608E3
:10084000DFFA805889828A83E0A3F208DFFA804CBD
:1008500080D280FA80C680D4806980F28033801094
:1008600080A680EA809A80A880DA80E280CA8033FD
:1008700089828A83ECFAE493A3C8C582C8CCC58375
:10088000CCF0A3C8C582C8CCC583CCDFE9DEE78045
:100890000D89828A83E493A3F608DFF9ECFAA9F0C4
:1008A000EDFB2289828A83ECFAE0A3C8C582C8CC1A
:1008B000C583CCF0A3C8C582C8CCC583CCDFEADE33
:1008C000E880DB89828A83E493A3F208DFF980CC95
:1008D00088F0EF60010E4E60C388F0ED2402B4048E
:1008E0000050B9F582EB2402B4040050AF23234535
:0608F00082239008507302
:00000001FF
