:100D7000446563696D616C00436F756E743D253425
:020D800064000D
:100ACD00E4F51CF51D7521FF7522FF7523FF7524B7
:100ADD00FF7525147526157527167528177B1C7D32
:100AED001B7F1A1209417D107F02120BB77BFF7A13
:100AFD000D7970120C35120D8E7F01120D5B7BFF7F
:100B0D007A0D7978851C00851D001200007FF47E1A
:0E0B1D0001120D44051DE51D70DC051C80D87D
:0C0D8200EF4E6007EF1F70F81E80F52296
:100D4400AD07AC06ED4C600E7F707E00120D82ED97
:070D54001D70F11C80EE226E
:1008A700EF131313541FFE53070714602D14604AE8
:1008B70014606724036003020940ED600EA8077403
:1008C70001088002C333D8FC428022A807740108BC
:1008D7008002C333D8FCF4528022ED600EA807745F
:1008E70001088002C333D8FC429022A8077401088C
:1008F7008002C333D8FCF4529022ED600EA807742F
:1009070001088002C333D8FC42A022A8077401085B
:100917008002C333D8FCF452A022ED600EA80774FE
:1009270001088002C333D8FC42B022A8077401082B
:090937008002C333D8FCF452B075
:010940002294
:02080000AD0742
:10080200E4FCED131313541FFF53050714602E1459
:10081200604C14606A240360030208A47E00740121
:10082200A805088005C333CE33CED8F9FFAB80EFDD
:100832005B60047F0180027F00AC0780657E0074EC
:1008420001A805088005C333CE33CED8F9FFAB909B
:10085200EF5B60047F0180027F00AC0780447E0072
:100862007401A805088005C333CE33CED8F9FFAB97
:10087200A0EF5B60047F0180027F00AC078023AFA2
:10088200057E007401A807088005C333CE33CED895
:10089200F9FFADB0EDFBEF5B60047F0180027F00EA
:0408A200AC07AF04EC
:0108A600222F
:060D9800041880C090D099
:100941008F1E8D1F8B20851E0D851F0E85200F8507
:1009510021108522118523128524138525148526CE
:1009610015852716852817E521F4600FE522F46027
:100971000AE523F46005E524F47005750C04801F75
:10098100750C08E4FDAF211208A7E4FDAF2212089F
:10099100A7E4FDAF231208A7E4FDAF241208A7E4E2
:1009A100FDAF1E1208A7E4FDAF1F1208A7E4FDAFBB
:1009B100201208A7E4FDAF251208A7E4FDAF261217
:1009C10008A7E4FDAF271208A7E4FDAF280208A796
:100BB7008D0B8F0AD3EF940274809480400DED540F
:100BC7000FFF2490F51AEF24D0F51B7F647E0012E7
:100BD7000D44E50C640870047F38800BE50C640451
:100BE7007008120BF97F28120C5F7F0E120C5F0240
:020BF7000D8E61
:0A0D8E007F01120C5FE4FF020D5B11
:100D5B00EFC3950A500EE4F5088F0974182FF8E6C7
:050D6B00FF120C5F22E5
:100D12000509E4F508E509C3950A4003E4F50974F9
:090D2200182509F8E6FF020C5F38
:100C5F008F22120A5DE50C6408AF227005120B712A
:100C6F00800D120B2B120CADE522C454F0F522AF00
:070C7F0022120B2B020CAD49
:100CF3008F21E508C3950B5005E521B40A03120DB6
:0F0D030012E521640A6007AF21120C8605082251
:100C35008B1E8A1F8920AB1EAA1FA920120D2BFF10
:100C45003395E04F60130520E5207002051F14F968
:0A0C5500120D2BFF120CF380DD22BC
:100C86008F22120A5DE50C6408AF227005120B7103
:100C9600800D120B2B120CD0E522C454F0F522AFB6
:070CA60022120B2B020CD0FF
:100A5D00E50EF460637D01AF171208A7E4FDAF0D3D
:100A6D001208A77D01AF0E1208A7E4FDAF0F120803
:100A7D00A77F0A7E00120D827D01AF0F1208A77F9E
:100A8D000A7E00120D82AF171208008F23E50C6449
:100A9D0004701BFDAF0F1208A77F0A7E00120D8296
:100AAD007D01AF0F1208A77F0A7E00120D82E5238C
:0F0ABD0070B8FDAF170208A77F017E00120D442D
:010ACC002207
:100BF9007F30120B2B120CAD7F647E00120D447FE7
:100C090030120B2B120CAD7FC87E00120D827F3083
:100C1900120B2B120CAD7FC87E00120D827F2012A1
:0C0C29000B2B120CAD7FC87E00020D8268
:100B2B008F23E523541060047D0180027D00AF14F8
:100B3B001208A7E523542060047D0180027D00AFDD
:100B4B00151208A7E523544060047D0180027D0047
:100B5B00AF161208A7E523548060047D0180027D47
:060B6B0000AF170208A70D
:100B71008F23E523540160047D0180027D00AF10C5
:100B81001208A7E523540260047D0180027D00AFB5
:100B9100111208A7E523540460047D0180027D0041
:100BA100AF121208A7E523540860047D0180027D7D
:060BB10000AF130208A7CB
:100CAD00E4FDAF0D1208A7E4FDAF0E1208A77D01FC
:100CBD00AF0F1208A77F0A7E00120D82E4FDAF0F61
:030CCD000208A773
:100CD0007D01AF0D1208A7E4FDAF0E1208A77D013C
:100CE000AF0F1208A77F0A7E00120D82E4FDAF0F3E
:030CF0000208A750
:030000000209D121
:0C09D100787FE4F6D8FD758128020A1832
:100D2B00BB010689828A83E0225002E722BBFE02C6
:090D3B00E32289828A83E49322F9
:1009DD00020ACDE493A3F8E493A34003F68001F259
:1009ED0008DFF48029E493A3F85407240CC8C3331B
:1009FD00C4540F4420C8834004F456800146F6DFEA
:100A0D00E4800B0102040810204080900D98E47ED4
:100A1D00019360BCA3FF543F30E509541FFEE493DE
:100A2D00A360010ECF54C025E060A840B8E493A3A5
:100A3D00FAE493A3F8E493A3C8C582C8CAC583CAD0
:100A4D00F0A3C8C582C8CAC583CADFE9DEE780BE88
:010D9E000054
:00000001FF
