:10106A007F807E257D007C001210947F651210A778
:02107A0080F9FB
:0C107C00EF4E6007EF1F70F81E80F52299
:10105300AD07AC06ED4C600E7F707E0012107CED88
:071063001D70F11C80EE225C
:100EF300EF131313541FFE53070714602D14604A96
:100F030014606724036003020F8CED600EA807745E
:100F130001088002C333D8FC428022A80774010869
:100F23008002C333D8FCF4528022ED600EA807740C
:100F330001088002C333D8FC429022A80774010839
:100F43008002C333D8FCF4529022ED600EA80774DC
:100F530001088002C333D8FC42A022A80774010809
:100F63008002C333D8FCF452A022ED600EA80774AC
:100F730001088002C333D8FC42B022A807740108D9
:090F83008002C333D8FCF452B023
:010F8C002242
:020E4C00AD07F0
:100E4E00E4FCED131313541FFF53050714602E1407
:100E5E00604C14606A24036003020EF07E0074017D
:100E6E00A805088005C333CE33CED8F9FFAB80EF8B
:100E7E005B60047F0180027F00AC0780657E00749A
:100E8E0001A805088005C333CE33CED8F9FFAB9049
:100E9E00EF5B60047F0180027F00AC0780447E0020
:100EAE007401A805088005C333CE33CED8F9FFAB45
:100EBE00A0EF5B60047F0180027F00AC078023AF50
:100ECE00057E007401A807088005C333CE33CED843
:100EDE00F9FFADB0EDFBEF5B60047F0180027F0098
:040EEE00AC07AF049A
:010EF20022DD
:0B109400438920759850D28E020F8D0A
:080F8D008F408E3F8D3E8C3D2C
:100F9500E47F607E09FDFCAB40AA3FA93EA83DC3A6
:100FA500120C3740367F007EC27D017C00A83DD300
:100FB500120C375026E47F807E01FDFCA83D120B04
:100FC5000CA804A905AA06AB077F007EC07DA87CF6
:100FD50000120B97120C298F41800375415D8541E5
:010FE5008D7E
:010FE60022E8
:08109F003098FDC298AF9922C0
:0810A7008F993099FDC29922D6
:10102E008B428A438944AB42AA43A944120AA66062
:10103E00130544E5447002054314F9120AA6FF1283
:05104E0010A780E22262
:060FE7008B458A46894794
:100FED00E4FE12109FAD071210A7ED640D6003BD56
:100FFD000A11AB45AA46A9478E82758300E4120AF1
:10100D00BF801BBD0806EE60031E80D6AB45AA4609
:10101D00A9478E82758300ED120ABF0E80C4AF06FC
:01102D0022A0
:020D09008F2C2D
:100D0B00E4F532EF6402704FE5317003020E4B14C1
:100D1B00FF7E007401A807088005C333CE33CED8FD
:100D2B00F9FFEE3395E0FDFCEF5530FFEE552FFE4E
:100D3B00ED552EFDEC552DFCE4FBFAF9F8C3120C26
:100D4B003760047F0180027F008F32E5322430FF51
:100D5B001210A7153180B1E4FFFEFDFCAB30AA2FBA
:100D6B00A92EA82DC3120C377022F532E532C3958C
:100D7B00314003020E4BC3E532940AE49400400366
:100D8B00020E4B7F301210A7053280E0E4F532E5FE
:100D9B0032C395314003020E23E4FFFEFDFCAB3062
:100DAB00AA2FA92EA82DC3120C376051AF2CAB075D
:100DBB00E4FAF9F8AF30AE2FAD2EAC2D120B97A88D
:100DCB0004A905AA06AB07AF2CE4FCFDFE120B0C25
:100DDB00C3E5309FFF74332532F8A607AF30AE2F33
:100DEB00AD2EAC2DC007AF2CAB07E4FAF9F8D0074A
:100DFB00120B978F308E2F8D2E8C2D8016AF31EFDF
:100E0B00F46015D3EF940AE49400500C743325323C
:100E1B00F8E4F60532020D9AE53260242432F8E646
:100E2B00FFD39409748094804006EF2437FF800928
:100E3B0074322532F8E62430FF1210A7153280D811
:010E4B002284
:060800008B088A09890A39
:10080600751D00751E00751F0B8B1A8A1B891CAB84
:100816001AAA1BA91C120AA67003020A9CF52A64CE
:10082600256003020A8904251CF51CE4351BF51B0B
:10083600FAA91C120AA6F52AFF3395E0FEC3EF9427
:1008460030EE648094804050D3EF9439EE64809407
:10085600805045E4F52BAF2AEF3395E0FEC3EF94C5
:1008660030EE648094804033D3EF9439EE64809404
:10087600805028E52A24D0FFE52B75F00AA42FF531
:100886002B7401251CF51CE4351BF51BAB1AFAA9C4
:100896001C120AA6F52A80BE752BFFE52A120C88C3
:1008A6000A85250A344208D1430920440A6D5309B2
:1008B600825509D8580A026208D16308E8640A6DAD
:1008C60073095D7509AD7800000A8EAB1D051FE53D
:1008D6001FAA1E7002051E14F9120AA6F52AFF02A7
:1008E6000A8BAB1DE51FF92402F51FE51EFA34003D
:1008F600F51E120AE1FDACF0C3EC64809480500C46
:10090600C3E49DFDE49CFC7F2D1210A7AE04AF0549
:10091600EE3395E08F308E2F805CAB1DE51FF924FA
:1009260004F51FE51EFA3400F51E120C488F238EBF
:10093600228D218C20EC335010120C298F238E220D
:100946008D218C207F2D1210A785233085222F859F
:10095600212E85202D8048AB1DE51FF92402F51FA9
:10096600E51EFA3400F51E120AE1F52585F024FF8E
:10097600E48F3085242FF52EF52D8023AB1DE51F42
:10098600F92404F51FE51EFA3400F51E120C488FF3
:10099600298E288D278C268F308E2F8D2E8C2D8597
:1009A6002B317F0A020A68AB1DE51FF92402F51FE9
:1009B600E51EFA3400F51E120AE1F52585F024FF3E
:1009C600E48F3085242FF52EF52D852B317F1002EF
:1009D6000A68AB1DE51FF92404F51FE51EFA34006D
:1009E600F51E120C488F298E288D278C268F308E67
:1009F6002F8D2E8C2D852B317F108066AB1DE51F2C
:100A0600F92402F51FE51EFA3400F51E120AE1F577
:100A16002585F024E52BF47003752B10E48525302D
:100A260085242FF52EF52D852B317F028034AB1DC5
:100A3600E51FF92404F51FE51EFA3400F51E120C15
:100A4600488F298E288D278C26E52BF47003752B6D
:100A56002085293085282F85272E85262D852B3123
:100A66007F02120D098021AB1DE51FF92403F51F36
:100A7600E51EFA3400F51E120C6812102E80097F4E
:100A8600258002AF2A1210A77401251CF51CE43537
:0F0A96001BF51B020815751D00751E00751F004E
:010AA500222E
:0300000002108863
:0C108800787FE4F6D8FD75814702106AFD
:100AA600BB010689828A83E0225002E722BBFE024E
:090AB600E32289828A83E4932281
:100ABF00F8BB010DE58229F582E5833AF583E8F06D
:100ACF00225006E92582C8F622BBFE05E92582C819
:020ADF00F22201
:100AE100BB010A89828A83E0F5F0A3E022500687E0
:100AF100F009E71922BBFE07E3F5F009E3192289A2
:0B0B0100828A83E493F5F074019322D4
:100B0C00E88FF0A4CC8BF0A42CFCE98EF0A42CFC88
:100B1C008AF0EDA42CFCEA8EF0A4CDA8F08BF0A406
:100B2C002DCC3825F0FDE98FF0A42CCD35F0FCEB65
:100B3C008EF0A4FEA9F0EB8FF0A4CFC5F02ECD392A
:0F0B4C00FEE43CFCEAA42DCE35F0FDE43CFC2297
:100B5B0075F008758200EF2FFFEE33FECD33CDCC51
:100B6B0033CCC58233C5829BED9AEC99E5829840D4
:100B7B000CF582EE9BFEED9AFDEC99FC0FD5F0D6B1
:100B8B00E4CEFBE4CDFAE4CCF9A88222B800C1B9DB
:100B9B000059BA002DEC8BF084CFCECDFCE5F0CB19
:100BAB00F97818EF2FFFEE33FEED33FDEC33FCEB52
:100BBB0033FB10D703994004EB99FB0FD8E5E4F90D
:100BCB00FA227818EF2FFFEE33FEED33FDEC33FCFA
:100BDB00C933C910D7059BE99A4007EC9BFCE99AEE
:100BEB00F90FD8E0E4C9FAE4CCFB2275F010EF2F33
:100BFB00FFEE33FEED33FDCC33CCC833C810D70733
:100C0B009BEC9AE899400AED9BFDEC9AFCE899F86D
:0E0C1B000FD5F0DAE4CDFBE4CCFAE4C8F92200
:0E0C2900C3E49FFFE49EFEE49DFDE49CFC22DC
:100C3700EB9FF5F0EA9E42F0E99D42F0E89C45F013
:010C4700228A
:100C4800BB010789828A83020CBA5005E9F8020CB5
:100C5800AEBBFE05E9F8020CC689828A83020CD273
:100C6800BB010789828A83020CEB5005E9F8020C64
:100C7800E2BBFE05E9F8020CF489828A83020CFDC6
:100C8800D083D082F8E4937012740193700DA3A3FB
:100C980093F8740193F5828883E47374029368600F
:060CA800EFA3A3A380DF0F
:0C0CAE00E6FC08E6FD08E6FE08E6FF2272
:0C0CBA00E0FCA3E0FDA3E0FEA3E0FF22AD
:0C0CC600E2FC08E2FD08E2FE08E2FF226A
:100CD200E493FC740193FD740293FE740393FF2268
:090CE200E6FB08E6FA08E6F92237
:090CEB00E0FBA3E0FAA3E0F9220A
:090CF400E2FB08E2FA08E2F92231
:0C0CFD00E493FB740193FA740293F92253
:00000001FF
